:020000040000FA
:06000000FAEF00F012000F
:020006000000F8
:080008008082010EE66E08EC97
:1000100001F0E5528092010EE66E08EC01F0E55227
:100020001200D9CFE6FFE1CFD9FF020EE126DE6A4A
:10003000DD6ADECF00F0DDCF01F0D890015004E69C
:10004000100E005C000E01581DE2FD0EDBCF02F029
:10005000FE0EDBCF03F0DF5002C000F003C001F062
:1000600005E0D89001320032E804FBE1010E0014F3
:10007000E8B08080E8A08090C7DFDF2A010ED9E3D6
:10008000DB2AD7D7020EE15C02E2E16AE552E16EBB
:10009000E552E7CFD9FF12008396040EE66E16EC08
:1000A00001F0E5528386030EE66E16EC01F0E55290
:1000B00012008386828612008296120012008280CD
:1000C000849484828490808A809880868094550E5F
:1000D000E66EE66EA6DFE552E552DEDF82908484AE
:1000E00084928480809A808880968084AA0EE66EAE
:1000F000E66E97DFE552E552CFDF828084948482FA
:100100008490809A809880968094550EE66EE66E74
:1001100088DFE552E5524CEF00F0D9CFE6FFE1CFA2
:10012000D9FFCDDFE552E7CFD9FF120002D8030097
:060130001200926A1200A9
:0A013600060EF66E000EF76E000EC6
:10014000F86E00010900F550856F0900F550866FC3
:1001500003E1856701D03DD00900F550806F0900AB
:10016000F550816F0900F550826F09000900F550C4
:10017000E96E0900F550EA6E090009000900F55022
:10018000836F0900F550846F09000900F6CF87F0EE
:10019000F7CF88F0F8CF89F080C0F6FF81C0F7FF75
:1001A00082C0F8FF0001835302E1845307E0090095
:1001B000F550EE6E8307F8E28407F9D787C0F6FFA3
:1001C00088C0F7FF89C0F8FF00018507000E865B35
:0401D000BFD7120083
:0C01D400000EF36E00EE00F0060E01D8E5
:1001E0001200EA6002D0EE6AFCD7F350E960120018
:0401F000EE6AFCD7E0
:0C01F40015EE00F025EE00F0F86A059C06
:100200009BEC00F021EC01F096EC00F0FBD7120023
:10021000FF0EE350066E1B0E00D001D0200EE76EDD
:0C022000E72EFED7062EFAD700D0120001
:04022C00FF0EE3508E
:10023000E84E1200000000D000D000D0E82EFAD71F
:020240001200AA
:020242001200A8
:020000040030CA
:0100010021DD
:010003000EEE
:010006008178
:00000001FF
