:020000040000FA
:06000000D6EF0FF0120024
:020006001200E6
:0600080056EF09F01200A2
:02000E000100EF
:0C00100010200000800000002C00000008
:04001C004AEC05F0B5
:10002000FB0EDBCFF3FFDB06F35000090AE098EC90
:1000300005F0FA0E03EC06F0F3E1151CF1E1010EF8
:1000400001D0000E79EF05F04AEC05F03B0EE124FB
:1000500002E3E168E652E16E010EDB6A020EDB6A42
:10006000F90EDBCFF6FFFA0EDBCFF7FFFB0EDBCF8F
:10007000F8FF0800F550DF6EDF5002E19DEF04F05D
:10008000250EDF5C02E090EF04F0030EDB6A040E45
:10009000DB6A050EDB6A060EDB6A070EDB6AB2EC72
:1000A00004F02D0EDF5C0CE02B0EDF5C09E0200E6F
:1000B000DF5C06E0230EDF5C03E0300EDF5C1AE15C
:1000C000DF50300A14E0130A0FE0030A0AE00B0ABB
:1000D00005E0060AE4E1030EDB80E1D7030EDB82D4
:1000E000DED7030EDB84DBD7030EDB86D8D7030E07
:1000F000DB88D5D72A0EDF5C1BE1AEEC04F0FCEC0C
:1001000004F010E0030EDB8008680968130EDBCFF3
:100110000DF0140EDBCF0EF08BEC07F0040E06C0D2
:10012000DBFF03D0130EE5EC04F0B2EC04F00BD0CF
:10013000090EDB6A53EC05F003E0C7EC05F0FAD7D3
:10014000090EE5EC04F0030EDBB0DB982E0EDF5C4D
:100150001BE1B2EC04F02A0EDF5C0BE1AEEC04F024
:10016000FCEC04F003E1130E37EC05F0B2EC04F004
:100170000BD0090EDB6A53EC05F003E0C7EC05F089
:10018000FAD7090E37EC05F0680EDF5C07E1B2EC38
:1001900004F0680EDF5C1DE1030E18D0740EDF5C06
:1001A00017E07A0EDF5C14E0480EDF5C06E0540EC8
:1001B000DF5C03E05A0EDF5C02E1020E07D06C0E3A
:1001C000DF5C03E06A0EDF5C04E1010E8AEC05F0FF
:1001D000C9DBDF506E0A01E17FD31E0A01E192D133
:1001E000200A01E18FD13F0A01E149D11A0A01E158
:1001F00046D10D0A01E143D1200A01E140D13A0A7A
:1002000001E13DD1200A01E13AD1260A01E135D1CF
:100210000D0A01E132D11A0A01E1D9D0200A4AE0DF
:10022000300A1FE0460A0EE0250A01E083D3D950C8
:10023000F90FE96EFF0EDA20EA6E010EEE5E000E97
:10024000EE5AEE5A98EC05F0250EE66E95DB03E1CA
:10025000151C01E169D394EC05F001E26BD3DB2AB4
:1002600069D3080EDB6A040EDB50010806E2040EB7
:10027000DB045CEC05F0DB508BDB080EDB5009E0A7
:10028000030EDB50010B05E172DB01E04DD3080EDC
:10029000DB6A64DBEFCFDFFF0CEC06F003E1151C3B
:1002A00001E142D394EC05F001E3DB2A60DB01E1DC
:1002B00041D33AD3070EDB5002080FE1D8EC05F02A
:1002C000030E9FEC05F00E0EEECFDBFF0F0EEECF10
:1002D000DBFF100EEECFDBFF20D0F70EDBCF17F0E9
:1002E000F80EDBCF18F0020E175E000E185AF70E4C
:1002F00017C0DBFFF80E18C0DBFF17C0E9FF18C0FE
:10030000EAFF8FEC05F0166A0E0E14C0DBFF0F0E2D
:1003100015C0DBFF100E16C0DBFF0E0EDBCFE6FFB5
:100320000F0EDBCFE6FF100EDBCFE6FF39EC0DF052
:10033000E552E552E552130E07C0DBFF140E08C06C
:10034000DBFF060EDB5005E0130ED3EC05F001E2F7
:100350006ADBF7EC05F002E2130E37DBBAEC05F0CE
:1003600006E0040ED3EC05F002E2050E2EDB030ED0
:10037000DBB005D0FCDA01E0D7D2080EDB6A090E4B
:10038000DB6A0E0EDBCFF6FF0F0EDBCFF7FF100E92
:10039000DBCFF8FF0800F550DF6EDF5014E0FDEC16
:1003A00005F011E20CEC06F003E1151C01E1BCD2F2
:1003B000BBDB01E3DB2A090EDB2AD9500E0FE96E05
:1003C000000ECBDBE7D7D3DA01E1B4D2ADD2C6DA87
:1003D000110EEECFDBFF120EEDCFDBFF110EDBCFE8
:1003E000E6FF120EDBCFE6FF2BEC0DF0E552E552F7
:1003F000130EF3CFDBFF140EF4CFDBFF060EDB5042
:1004000004E0130ED0DB01E20EDBF7EC05F002E2B4
:10041000130EDBDAAFDB05E0040EC5DB02E2050EEE
:10042000D4DA030EDBB005D0A2DA01E07DD2080EEB
:10043000DB6A090EDB6A110EDBCFE9FF120EDBCFA0
:10044000EAFFEFCFDFFFDF5014E0D7DB12E2E4DB9F
:1004500003E1151C01E168D267DB01E3DB2A090E29
:10046000DB2A110EDB2ADBCFE9FF120EE8E3DB2AE1
:10047000E6D77DDA01E15ED257D2030EDB8E070E9E
:10048000DB0410E195DB040E5ADB0A0EEECFDBFF36
:100490000B0EEECFDBFF0C0EEECFDBFF0D0EEECF23
:1004A000DBFF6CD0070EDB5003082CE1030EDBAE44
:1004B0000DD0B2DA020E76DAEFCF14F0156A166AB2
:1004C000176A14AE39D01568166835D0F70EDBCF31
:1004D00015F0F80EDBCF16F0020E155E000E165A60
:1004E000F70E15C0DBFFF80E16C0DBFF15C0E9FFE5
:1004F00016C0EAFFEFCF14F00A0E14C0DBFF0B0E9C
:10050000DB6A38D0070EDB50020809E1030EDBAED0
:1005100004D059DB16AE10D00ED055DB0DD0030E33
:10052000DBAE12D079DA020E3DDAF9DA166A176A12
:1005300015AE02D016681768E2DA0C0E16C0DBFFA3
:100540000D0E17C0DBFF1AD0F70EDBCF16F0F80E3A
:10055000DBCF17F0020E165E000E175AF70E16C00C
:10056000DBFFF80E17C0DBFF16C0E9FF17C0EAFF7C
:10057000D6DAC5DA0C0EDB6A0D0EDB6A060EDB502E
:1005800005E1010EF36E050EF3CFDBFF150EDB6AFE
:10059000160EDB6AD950370F146E000EDA20156E76
:1005A000390E14C0DBFF3A0E15C0DBFF380EDB6AD4
:1005B000080EDB6A0A0EAEDADF50780A12E0200A73
:1005C00010E0280A0CE0200A0AE03F0A06E00D0AC3
:1005D00002E0200A08E1020E05D0080E03D0080E42
:1005E000DF26100E97DA030EDBBE02D0DB92DB941F
:1005F000DB50800B24E08ADAD890030EEB50000A1F
:1006000008E6000EEE5C000EEE58000EEE58000EEE
:10061000EE5815E213DA0B680C680D680E68F3ECFF
:100620000CF00A0E02C0DBFF0B0E03C0DBFF0C0E4A
:1006300004C0DBFF0D0E05C0DBFF2D0E08D0030E3E
:10064000DBA202D02B0E03D0DBA408D0200EF36E69
:10065000170EF3CFDBFF150EDB2A02D0170EDB6A75
:10066000050EDB5003E1B7D901E189D0FD0E146E10
:100670001F0E156E000E166E070EDBCF17F0186AF0
:10068000196A1A6A17C00BF018C00CF019C00DF0E7
:100690001AC00EF0D3D944EC0EF014500224F36EBD
:1006A00015500320F46E16500420F86EF4CFF7FFB7
:1006B000F3CFF6FF0800090EF5CFDBFF580EDF5C25
:1006C0000FE1610EF36E090E7BD90AE3200E146E62
:1006D000090EDBCFE7FF1450E75E090EE7CFDBFF23
:1006E000070EDBCF14F0156A166A176A0FDA14C00A
:1006F0000BF015C00CF016C00DF017C00EF0EECFC9
:1007000006F0EECF07F0EECF08F0EFCF09F044ECA3
:100710000EF009C0EDFF08C0EDFF07C0EDFF06C0F9
:10072000EFFF390EDBCFE9FFDB063A0EDBCFEAFF46
:1007300001E2DB06090EDBCFEFFF150EDB2A4BD9FA
:1007400095E1030EDBA61DD06F0EDF5C06E1C1D97B
:1007500018E3150EDB285BDA14D0780EDF5C09E0B5
:10076000580EDF5C06E0620EDF5C03E0420EDF5CE9
:1007700008E1020EF36E160EF3CFDBFF02D0150E6A
:10078000DB6A030EDB50100B0EE0040EDBCF14F01F
:10079000050EDB50D880145406E2060EDB5003E150
:1007A000040EDB5034DA95D90AE2050EDBCFE7FF01
:1007B000150EDB50E75E050EE7CFDBFF02D0050E1E
:1007C000DB6A040EDBCF14F0160E45D9D880145422
:1007D00014E2160EDBCFE6FF150EDBCFE6FF040EAC
:1007E000DBCFE6FF050EDB50E552E75CE552D88033
:1007F000E754E552D880E7545FD9030EDB50010B74
:100800000BE1080EDB5008E0B2D801E08DD0080EF5
:10081000DB50BED8080EDB6A170EDB5007E088D924
:10082000170EF1D903E1151C01E17ED0160EDB5045
:1008300016E07ED9300EE66E9FD802E1151C74E0FA
:1008400077D9DFCFE6FFB1EC0CF0E552E552E55287
:10085000F4CF15F00001F31C02E1151C65E0050E54
:10086000DBCF14F0160EDB50D880145409E2050ECD
:10087000DBCFE7FF160EDB50E75E050EE7CFDBFFB1
:10088000300EE66E050ECBD94FE1390EDB2ADBCFF9
:10089000E9FF3A0E01E3DB2ADBCFEAFF090EEFCFD7
:1008A000DBFFDB500EE044D9090EADD902E1151C87
:1008B0003BE0390EDB2ADBCFE9FF3A0EEDE3DB2A22
:1008C000EBD755D831E1160EDBCFE6FF080EC3D8C3
:1008D000E552E7245DD82ED0070EDB50030A1CE05A
:1008E000010A14E0030A07E07BD9DBCFEEFF020E1A
:1008F000DBCFEDFF1FD0F5D8196A17AE02D018680C
:1009000019682CD8BCD819C0EEFF14D0EAD817BE8D
:10091000186824D8B4D80ED063D9DBCFEFFF0AD043
:100920007BD905E1151C03E1F368F46810D0FCD80D
:1009300001E3DB2A79D939EF00F0010EDBCF14F0A7
:10094000020EDBCF15F014C0F3FF15C0F4FF3B0E11
:10095000E15C02E2E16AE552E16ECBD029D9020EF8
:100960009FEF05F061D90800F550DF6E1200200EF0
:10097000E66E080E0FEF06F0B1EC0CF0E552E55212
:10098000E552F3CF14F0F4CF15F00001F31C120080
:10099000146E156AD950010F4DD91450EE2615501A
:1009A000ED221200185E000E195AF70E18C0DBFF78
:1009B000F80E19C0DBFF18C0E9FF19C0EAFF1200EA
:1009C000DBCFF4FFF350F45C1200DB50E76E040E53
:1009D000E7CFDBFF12000A0EDBCF14F00B0EDBCFEC
:1009E00015F00C0EDBCF16F00D0EDBCF17F0145008
:1009F0001510161017101200130EEECFDBFF140E99
:100A0000EDCFDBFF130EDBCF14F0140EDBCF15F0B0
:100A10000001800E15141200F70EDBCF18F0F80E4F
:100A2000DBCF19F01200050EDB50E66ED950130F24
:100A300001D9E552E750EE6EED6A12000A0EDBCFE7
:100A400006F00B0EDBCF07F00C0EDBCF08F00D0E1F
:100A5000DBCF09F01200DBCFE6FF150EDBCFE6FFA0
:100A6000050EDB50E552E724E552E7241200DB5087
:100A7000CED8010EF36E060EF3CFDBFF1200EE5060
:100A8000EFCFEAFFE96E16C0EEFF17C0EEFF18C009
:100A9000EEFF1200D9CFE6FFDACFE6FFE1CFD9FFB4
:100AA000E2CFDAFF1200DFCFE6FFE66AA4EC0FF038
:100AB000E552E552F3501200E76E080EE7CFDBFF78
:100AC0001200EECF14F0EECF15F0EFCF16F0176A4C
:100AD0001200050EDBCF14F0150EDB50D880145435
:100AE0001200010EDBCF16F0020EDBCF17F0186AF2
:100AF0001200E552E5CFDAFFE7CFD9FF12000A0E68
:100B000014C0DBFF0B0E15C0DBFF1200D9500A0F1B
:100B10001AEF06F0F36E070EF3CFDBFF1200EECFF5
:100B200014F0EFCF15F01200010EDB2A020E1200B6
:100B3000FC0EDBCFE6FFFD0EDBCFE6FF1200145EFE
:100B4000000E155AF70E14C0DBFFF80E15C0DBFFC0
:100B500014C0E9FF15C0EAFF1200DA20EA6EEF2A9E
:100B6000EECFF6FF000EEF22EECFF7FFEF22EECF33
:100B7000F8FF1200040EDBCFE6FF130EDB50E55248
:100B8000E75C9ADFDB5004DF060EDB501200090E33
:100B9000DB500A0DF350DF24D00FE76E090EE7CFCC
:100BA000DBFFB2EF04F0DB50F36E050EE0EF04F074
:100BB000F70EDBCF14F0F80EDBCF15F01200DFCF0D
:100BC000E6FFBCEF04F028DF030EECDE61EF05F07A
:100BD0000EEC00F0E552E552E552E5520009120034
:100BE000BDDEEE50EFCFEAFFE96E010E1200130EEC
:100BF000DB50F36E040EE0EF04F0040EDB50F36EF6
:100C0000090EE0EF04F0DBCFE6FFBCEF04F0E76E87
:100C1000050EE7CFDBFF12008BDFDFEF05F0DBCF48
:100C2000E6FF86DFE8EF05F0D950F90FE96EFF0E19
:0E0C3000ADEF05F0E96E000EDA20EA6E12005C
:020C3E00019E15
:100C400008D0019E09AE05D0086C091EE86A092289
:100C5000018E09C003F008C002F0136A126A8E0EFA
:100C6000046E056AB1EF08F00F7E016AEDEC08F042
:100C700005EC09F001B695EF08F001A20AD001AA2F
:100C800003D001BE95EF08F001A4A1EF08F09EEF9C
:100C900008F001AA05D001ACA1EF08F09EEF08F022
:100CA00001A00AD001A808D001BE04D001A402D03E
:100CB000AAEF08F0AEEF08F0126A056A0F500A5C5E
:100CC000116E10E307C013F008C002F009C003F072
:100CD0000AC010F00CC007F00DC008F00EC009F0FB
:100CE000013A09D00CC013F00DC002F00EC003F0A1
:100CF0000FC010F0116C019E01BC018E10C004F0F9
:100D000001B0DDEF08F01A0E1160DDEF08F0046AA3
:100D10000A6A01A408D0076C081E091E0A1EE86AA8
:100D2000082209220A2201AC08D0136C021E031EFD
:100D3000041EE86A022203220422066A115207E016
:100D40000A340932083207320632112EF9D7075019
:100D5000132608500222095003220A50042206C01A
:100D600012F0019E04AE0BD0126C131E021E031E65
:100D7000041EE86A1322022203220422018E04A028
:100D800006D0D8800332023213321232102A10C039
:100D900004F0B1EF08F0016AEDEC08F005EC09F0A1
:100DA00001B695EF08F001A205D001BA95EF08F061
:100DB0009CEF08F001BAA8EF08F001A005D001B837
:100DC00095EF08F0A8EF08F001B89CEF08F0056A6D
:100DD0007F0E0A24046EE86A05220F50045EE86A5A
:100DE000055A1A0E106E0A6A126A136A026A036AB8
:100DF0000C50075E0D50085A0E50095A000E0A5A40
:100E000009E70C5007260D5008220E500922000E4B
:100E10000A2201D0128AD8900736083609360A36D7
:100E2000D8901236133602360336102EE1D7095009
:100E300008100710D8A4128AB1EF08F0016AEDEC8F
:100E400008F005EC09F001B695EF08F001A205D015
:100E500001B895EF08F09CEF08F001AA05D001B0A9
:100E600095EF08F09CEF08F001B002D001A802D085
:100E7000A8EF08F0056A0F500A24046EE86A0522FC
:100E80007E0E045EE86A055A126A136A026A036AF1
:100E90000E500902F4CF03F0F3CF02F00D50090217
:100EA000F3501326F4500222000E03220E500802C3
:100EB000F3501326F4500222000E03220C500902B4
:100EC000F3501226F4501322000E022203220D507A
:100ED0000802F3501226F4501322000E02220322BD
:100EE0000E500702F3501226F4501322000E022275
:100EF00003220C500802F4501226000E1322022284
:100F000003220D500702F4501226000E1322022273
:100F10000322B1EF08F009C013F008C012F0085026
:100F20000D02F4CF07F0F3CF06F009500E02F4CF14
:100F300009F0F3CF08F00D02F3500726F450082211
:100F4000E86A092212500E02F3500726F4500822D4
:100F5000E86A09220EAEB1EF07F01250085E135096
:100F6000095A13AE000C0D50085E0E50095A000CC1
:100F700009C013F008C012F007C011F007500C02AE
:100F8000F4CF05F0F3CF04F008500D02F4CF07F0D2
:100F9000F3CF06F00C02F3500526F4500622E86A5F
:100FA000072211500D02F3500526F4500622E86A7C
:100FB000072209500C02F3500626F450072209506C
:100FC0000D02086AE86A0822F3500726F450082246
:100FD00011500E02F3500626F4500722096AE86AFF
:100FE0000822092212500E02F3500726F45008225C
:100FF000E86A092213500E02F3500826F450092221
:10100000000C016AEDEC08F001B60BEF08F001A24C
:101010000ED001B405D07F0E096EFF0E086E1FD0F2
:10102000800E096E086A1BD0096A086A18D001B0E0
:10103000FBD78F0E0A60EDD77E0E0A64F5D78E0EB1
:101040000A5C05E0D890093208320A2AF8D701A4D0
:1010500006D0086C091EE86A092209AEE5D712001D
:1010600040EC08F001B6000C01B0010C000C40ECA3
:1010700008F001B6000C01B0000C01B4000C010C2A
:10108000016AEDEC08F005EC09F001B6120001AEC2
:1010900008D001A004D001A802D001801200019064
:1010A00012000F500A5C0BE10E50095C08E10D5074
:1010B000085C05E10C50075C02E101801200D8A039
:1010C00002D0018E10D00A500FC00AF00F6E0950E6
:1010D0000EC009F00E6E08500DC008F00D6E0750DE
:1010E0000CC007F00C6E0F500A5C10E0FF0F09E017
:1010F000019001B403D001AE0184120001AE01944D
:1011000012000F2AD8900E320D320C320C50075EAE
:101110000D50085A0E50095A09BEEAD7D890073622
:10112000083609360A2EF8D7C8D77F0E0A6EFF0E8A
:10113000096E086E076E12007F0E01BEFF0E0A6E6A
:1011400002D07F0E0A6E800E096E086A076AF3D716
:1011500001AE04D0800E0A6E096AF7D70A6A096ADE
:10116000F4D70350021013101210F8E005BEF0D7A8
:1011700003BE0CD004500510EBE0D89012361336A5
:10118000023603360406D8A00506F2D70550D4E18E
:101190000428D2E012AE11D07F0E121402E113A087
:1011A0000CD0132AE86A0222032207E3D880033214
:1011B00002321332042A0428BFE00450C9E013C0ED
:1011C00007F002C008F00334096E04300A6E0932D9
:1011D0000A9E01BE0A8E9BEF08F009360A3602E32A
:1011E0000184017E06E101800A6A096A086A076AC9
:1011F00012000A2803E0D88009321200D890093280
:1012000002E101821200018612000E360F3602E35F
:10121000018C017E06E101880F6A0E6A0D6A0C6A74
:1012200012000F2803E0D8800E321200D8900E3240
:06123000EAE1018A120050
:0A12360000000000000000000000AE
:10124000000000000000000000000000000000009E
:10125000000000000000000000001200050EE66E15
:10126000B6EC0FF0E55212000F0EE66EB6EC0FF082
:10127000E5521200280EE66EA5EC0BF0E55244ECA8
:101280000FF00009FCE1060EE66EF9EC0DF0E552F8
:1012900044EC0FF00009FCE10E0EE66EF9EC0DF0E7
:1012A000E55244EC0FF00009FCE11200DACFE4FF54
:1012B000E2CFDAFFE9CFE4FFEACFE4FFF6CFE4FFC5
:1012C000F7CFE4FFF5CFE4FFF3CFE4FFF4CFE4FF83
:1012D000FACFE4FF00EE00F0140EE80403E3EECFD3
:1012E000E4FFFBD700EE14F0090EE80403E3EECFB1
:1012F000E4FFFBD7E652F29EF0A00BD0F096F09000
:101300008176010E0001806F816B842B000E852396
:10131000F0869EA40DD09D949E948178010E0001CC
:10132000826F836BA22B000EA3238BD880D89D8461
:10133000F2A419D0F29AF29481740001806B816B4F
:10134000060E086E096A84C00DF085C00EF08BECA5
:1013500007F006C086F007C087F00001846B856B3C
:1013600062D857D8F28A9EA007D09D909E90000127
:10137000882B000E89239D80F28EE55200EE1CF032
:10138000090EE80403E3E5CFEDFFFBD700EE13F011
:10139000140EE80403E3E5CFEDFFFBD7E5CFFAFF3A
:1013A000E5CFF4FFE5CFF3FFE5CFF5FFE5CFF7FF9E
:1013B000E5CFF6FFE5CFEAFFE5CFE9FFE5CFDAFFBE
:1013C0001100939081909394819493968196939831
:1013D00081981200970EE66E28EC0FF0E552D59E2C
:1013E000850EE66ECFEC0EF0E552CD90120094849F
:1013F000850EE66E5FEC0FF0E5521200D08EF28E95
:10140000F28AF19AF184F08CF0869D809D849F8011
:101410001200690EE66E670EE66E0CEC0FF0E552F8
:10142000E552D58E1200D59E1200CD801200CD90CF
:10143000000EE66EE66AF0EC0EF0E552E552CD8065
:1014400012000001010EA2190CE1A3510AE168EC9F
:101450000EF0F3CF8AF0F4CF8BF0F3CFA8F0F4CFF7
:10146000A9F00001020EA2190CE1A3510AE168ECF7
:101470000EF0F3CF8AF0F4CF8BF0F3CFA6F0F4CFD9
:10148000A7F00001A33539E2A2510208000EA355CE
:1014900034E268EC0EF0F3CF8AF0F4CF8BF0A6C004
:1014A000A8F0A7C0A9F088C017F089C018F0196A81
:1014B00018BE19680C680D680E6A17C007F018C0CE
:1014C00008F019C009F0B8EC07F004C017F005C027
:1014D00018F006C019F08AC01AF08BC01BF01C6A05
:1014E00004501A24146E05501B20156E06501C2043
:1014F000166E14C0A6F015C0A7F07FEF0AF0000129
:10150000A851A65DAA6FA951A759AB6FE80E146E3A
:10151000030E156EAAC008F0ABC009F014C00DF0A0
:101520000E6E8EEC0FF01FEC06F007C094F008C0B2
:1015300095F009C096F00AC097F00C6A0D6A800E0B
:101540000E6E3F0E0F6E8CC007F08DC008F08EC07F
:1015500009F08FC00AF035EC06F007C08CF008C027
:101560008DF009C08EF00AC08FF00C6A0D6A480E2B
:101570000E6E420E0F6E94C007F095C008F096C034
:1015800009F097C00AF037EC08F0010A18E10C6A7C
:101590000D6A800E0E6E3F0E0F6E90C007F091C068
:1015A00008F092C009F093C00AF035EC06F007C0CD
:1015B00090F008C091F009C092F00AC093F00C6A54
:1015C0000D6A700E0E6E410E0F6E8CC007F08DC04E
:1015D00008F08EC009F08FC00AF030EC08F0010A64
:1015E00034E10001826B836B8CC00CF08DC00DF078
:1015F0008EC00EF08FC00FF090C007F091C008F0C1
:1016000092C009F093C00AF0CBEC06F007C098F046
:1016100008C099F009C09AF00AC09BF00C6A0D6AE4
:10162000C80E0E6E420E0F6E1EEC07F007C09CF047
:1016300008C09DF009C09EF00AC09FF001EC08F0C0
:1016400008C0A4F009C0A5F001D812000001A26BE7
:10165000A36B8C6B8D6B8E6B8F6B906B916B926BA6
:10166000936B1200E66A5EEC0DF0E55244EC0FF06D
:101670000009FCE186C0E6FF87C0E6FFEF0E146EAE
:101680001F0E156E166A14C0E6FFE66E16C0E6FF62
:10169000AC0EE66E000EE66E0CEC0CF0176E070E4C
:1016A000E15E1750AC0EE66E000EE66E1FEC0EF01B
:1016B000E552E55244EC0FF00009FCE11200400E47
:1016C000E66E5EEC0DF0E55244EC0FF00009FCE133
:1016D000A4C0E6FFA5C0E6FFA2C0E6FFA3C0E6FFE8
:1016E000E40E146E1F0E156E166A14C0E6FFE66E49
:1016F00016C0E6FFC00EE66E000EE66E0CEC0CF0B7
:10170000176E090EE15E1750C00EE66E000EE66E13
:101710001FEC0EF0E552E55244EC0FF00009FCE13D
:1017200012004FDE6BDE63DE55DEA4DD7EDE71DE91
:1017300000018051811101E195DF0001010E821944
:0A174000F7E18351F5E1BBDFF3D7B9
:06174A00D9CFE6FFE1CF5C
:10175000D9FF0F0E831695169594959295908C94BB
:101760008C928C9034EC09F0300EE66EF9EC0DF0B2
:10177000E552050EE66E77EC0FF0E552300EE66EA0
:10178000F9EC0DF0E552010EE66E77EC0FF0E55244
:10179000320EE66EF9EC0DF0E55244EC0FF0000964
:1017A000FCE144EC0FF00009FCE1FE0EDBCFE6FFAC
:1017B000F9EC0DF0E55244EC0FF00009FCE1080EE5
:1017C000E66EF9EC0DF0E55244EC0FF00009FCE197
:1017D0000F0EE66EF9EC0DF0E55244EC0FF0000947
:1017E000FCE1010EE66EF9EC0DF0E55244EC0FF071
:1017F0000009FCE1040EE66EF9EC0DF0E55244EC54
:101800000FF00009FCE1800EE66E5EEC0DF0E55293
:08181000E552E7CFD9FF1200F9
:08181800D9CFE6FFDACFE6FFAD
:10182000E1CFD9FFE2CFDAFFE652E652E652E652C6
:10183000D950F90F146EFF0EDA20156E020E14C087
:10184000DBFF030E15C0DBFF020EDBCFE6FF030E4E
:10185000DBCFE6FFF90EDBCFE6FFFA0EDBCFE6FFCC
:10186000FB0EDBCFE6FFD950FC0FE66EFF0EDA2051
:10187000E66E24EC00F0146E070EE15C02E2E16A11
:10188000E552E16E1450F3CFDEFFF4CFDDFFFC0E26
:10189000DBCFE9FFFD0EDBCFEAFFEF6ADECF14F00E
:1018A000DDCF15F014C0F3FF15C0F4FF040EE15CAA
:1018B00002E2E16AE552E16EE552E5CFDAFFE7CFF9
:0418C000D9FF12003A
:0C18C4000E0EF66E000EF76E000EF86EB1
:1018D00000010900F550D96F0900F550DA6F03E1F6
:1018E000D96701D03DD00900F550D46F0900F550FB
:1018F000D56F0900F550D66F09000900F550E96E63
:101900000900F550EA6E090009000900F550D76F8B
:101910000900F550D86F09000900F6CFDBF0F7CFCA
:10192000DCF0F8CFDDF0D4C0F6FFD5C0F7FFD6C0AD
:10193000F8FF0001D75302E1D85307E00900F55042
:10194000EE6ED707F8E2D807F9D7DBC0F6FFDCC0A8
:10195000F7FFDDC0F8FF0001D907000EDA5BBFD743
:02196000120073
:0E196200D9CFE6FFDACFE6FFE1CFD9FFE2CF23
:10197000DAFFFB0EDBCF14F0FC0EDBCF15F000011D
:10198000800E15141AE1FB0EDBCFE9FFFC0EDBCF56
:10199000EAFFEECFF3FFEDCFF4FFEE2A000EEF22C9
:1019A000F3CFE9FFF4CFEAFFFD0EDBCFEFFFEF50FF
:1019B000156AF36E15C0F4FF10D0FB0EDB50FE0865
:1019C00006E1FD0EDBCFE6FFE4EC0FF005D0FD0EE7
:1019D000DBCFE6FF03EC00F0E552E552E5CFDAFF9E
:0619E000E7CFD9FF120061
:0A19E60006500B02F3CF02F0F4CF1D
:1019F00003F00C02F3500326000EF420046E065090
:101A00000D02F3500426000EF420056E06500E025F
:101A1000F350052607500B02F3500326F45004221E
:101A2000000E052207500C02F3500426F450052244
:101A300007500D02F350052608500B02F350042600
:101A4000F450052208500C02F350052609500B02F1
:061A5000F3500526120010
:0A1A5600FE0EE3CFE9FFFF0EE3CF21
:101A6000EAFFF36AF46AEE5203E0F34AF42AFBD782
:101A70001200FF0EE3CFF8FFE552FF0EE3CFF7FFB2
:101A8000E552FF0EE3CFF6FFE552E66AE66AE66A44
:101A90000900F55209E0FD0EE32A05E1FE0EE32AF6
:101AA00002E1FF0EE32AF4D7FD0EE3CF07F0FE0EAE
:0C1AB000E3CF08F0FF0EE3CF09F01200B6
:041ABC00D9CFE6FF99
:101AC000E1CFD9FF0F0E95168316FE0EDB5080096D
:101AD000F00B83128C948C921BEC09F08C801BEC25
:101AE00009F08C900F0E8316FE0EDB38F00BF00B16
:101AF00083121BEC09F08C801BEC09F08C90F00E2B
:0A1B00009512E552E7CFD9FF12005D
:061B0A00D9CFE6FFE1CF98
:101B1000D9FF0F0E95168316FE0EDB504009F00B11
:101B200083128C948C921BEC09F08C801BEC09F0D6
:101B30008C900F0E8316FE0EDB38F00BF00B831229
:101B40001BEC09F08C801BEC09F08C90F00E9512C8
:081B5000E552E7CFD9FF1200B6
:081B5800D9CFE6FFE1CFD9FF70
:101B6000FD0EDBCFF6FFFE0EDBCFF7FF0800F550D2
:101B700016E044EC0FF00009FCE1FD0EDBCFF6FFB0
:101B8000FE0EDBCFF7FF0800F550E66ED3EC0DF04C
:101B9000E552FD0EDB2AFE0EE3E3DB2AE1D7E55238
:061BA000E7CFD9FF12009F
:0A1BA600D9CFE6FFE1CFD9FF0F0E03
:101BB00095168316FE0EDB50F00B83128C828C94EC
:101BC0001BEC09F08C801BEC09F08C900F0E831637
:101BD000FE0EDB38F00BF00B83121BEC09F08C804F
:101BE0001BEC09F08C90F00E9512E552E7CFD9FF6F
:021BF0001200E1
:0E1BF200D9CFE6FFE1CFD9FF0F0E951683166F
:101C0000FE0EDB50F00B83128C948C921BEC09F0CF
:101C10008C801BEC09F08C900F0E8316FE0EDB38C7
:101C2000F00BF00B83121BEC09F08C801BEC09F01D
:0E1C30008C90F00E9512E552E7CFD9FF12000E
:021C3E00D9CFFC
:101C4000E6FFE1CFD9FFFD0EDBCFE9FFFE0EDBCFD4
:101C5000EAFFEF5015E044EC0FF00009FCE1FD0E47
:101C6000DBCFE9FFFE0EDBCFEAFFEF50E66ED3ECF1
:101C70000DF0E552FD0EDB2AFE0EE5E3DB2AE3D78D
:081C8000E552E7CFD9FF120085
:081C8800056A046A036A026A9E
:101C9000200EE76ED890063607360836093602362B
:101CA0000336043605360B50025C0C5003580D50B9
:101CB00004580E50055809E30B50025E0C50035AAD
:101CC0000D50045A0E50055A062AE72EE4D712008A
:101CD000D9CFE6FFDACFE6FFE1CFD9FFE2CFDAFFD7
:101CE000E652E6520001DE919EB4DE81BE50DF6E08
:101CF000010EBFCFDBFFDECF14F0DDCF15F014C037
:101D0000F3FF15C0F4FFE552E552E552E5CFDAFFE7
:061D1000E7CFD9FF12002D
:0A1D1600D9CFE6FFE1CFD9FFE65276
:101D20008C848C821BEC09F08C801BEC09F0F00E8B
:101D30008314DF6E8C901BEC09F08C801BEC09F097
:101D400083380F0B0F0BDF128C908C928C94DF502A
:0A1D5000E552E552E7CFD9FF12007B
:061D5A00D9CFE6FFE1CF46
:101D6000D9FFE6528C848C921BEC09F08C801BEC22
:101D700009F0F00E8314DF6E8C901BEC09F08C8060
:101D80001BEC09F083380F0B0F0BDF128C908C9437
:0E1D90007F0EDF14E552E552E7CFD9FF1200B7
:021D9E00D9CF9B
:101DA000E6FFDACFE6FFE1CFD9FFE2CFDAFFFD0EA3
:101DB000DB507E0BCD6EFD0EDBAC02D0CD8E01D0A4
:101DC000CD9ECF6ACE6A9E90DBAE02D09D8001D0C0
:101DD0009D90CD80E552E5CFDAFFE7CFD9FF120025
:101DE000D9CFE6FFDACFE6FFE1CFD9FFE2CFDAFFC6
:101DF000E652E652FC0EDBCFDEFFDBCFDDFF010E4D
:101E0000DB50CF6EDF50CE6EE552E552E552E5CFA6
:081E1000DAFFE7CFD9FF120051
:081E1800D9CFE6FFDACFE6FFA7
:101E2000E1CFD9FFE2CFDAFFE652E652FC0EDBCF7C
:101E3000DEFFDBCFDDFF010EDB50D76EDF50D66E4D
:101E4000E552E552E552E5CFDAFFE7CFD9FF1200C0
:101E5000D9CFE6FFDACFE6FFE1CFD9FFE2CFDAFF55
:101E6000FD0EDB507F0BD56ED76AD66AF294FD0E5D
:101E7000DBAE02D0F28A01D0F29AD58EE552E5CFE0
:081E8000DAFFE7CFD9FF1200E1
:081E88008C848C921BEC09F024
:101E90008C801BEC09F083AE09D08C901BEC09F010
:101EA0008C801BEC09F08C908C94010C8C901BECBA
:0E1EB00009F08C801BEC09F08C908C94000CD7
:021EBE00D9CF7A
:101EC000E6FFDACFE6FFE1CFD9FFE2CFDAFFFD0E82
:101ED000DB500F0BBD6EFD0EDBAE02D09E949D84D9
:0E1EE0009484E552E5CFDAFFE7CFD9FF120078
:021EEE00FF0EE5
:101EF000E3501E6EEF0E01D0F30EE76EE72E7EEF7D
:101F00000FF00C0E1D6EE76AE72E84EF0FF01D2E0A
:0C1F100083EF0FF01E2E7CEF0FF012008C
:041F1C00056A046AE4
:101F2000100EE76ED89008360936043605360D5087
:101F3000045C0E50055805E30D50045E0E50055A22
:081F4000082AE72EF0D7120079
:081F4800F36AF46AFF0EE124C4
:101F5000E96EFF0EE220EA6EED6607D02F0EEF6409
:0C1F600004D03A0EEF6001D0F32A12000A
:041F6C00FF0EE35031
:101F70001E6E480E01D04C0EE76EE72EFED7E76AC4
:0C1F8000E72EFED71E2EF7D7000012003F
:041F8C00000EF36EE2
:101F900000EE00F0060E01D81200EA6002D0EE6AF0
:0C1FA000FCD7F350E9601200EE6AFCD799
:041FAC0015EE00F03E
:101FB00025EE00F0F86A019C62EC0CF007EC10F0E2
:081FC00091EC0BF0FBD71200BD
:081FC800FF0EE350ACBA04D097
:101FD000AF6AAB8EAC8A949CACA2FED7AD6EF36EAA
:041FE000F46A12008D
:0C1FE40025643A4852563A25642500480E
:0D1FF00065617274626561743A20256400B9
:031FFD003031324E
:0E200000333435363738396162636465660003
:02200E001200BE
:1020100000000000000000000000000000000000C0
:1020200000000000000000000000000000000000B0
:0C203000000000000000000000000000A4
:020000040030CA
:0100010021DD
:010003000EEE
:010006008178
:00000001FF
