:020000040000FA
:060000004EEF13F01200A8
:020006001200E6
:0600080065EF06F0120096
:02000E001200DE
:0600180004EF07F01200E6
:02001E000100DF
:0C002000E5260000BC0000002F000000DE
:04002C0052EC05F09D
:10003000FB0EDBCFF3FFDB06F35000090AE0A0EC78
:1000400005F0FA0E0BEC06F0F3E1151CF1E1010EE0
:1000500001D0000E81EF05F052EC05F03B0EE124DB
:1000600002E3E168E652E16E010EDB6A020EDB6A32
:10007000F90EDBCFF6FFFA0EDBCFF7FFFB0EDBCF7F
:10008000F8FF0800F550DF6EDF5002E1A5EF04F045
:10009000250EDF5C02E098EF04F0030EDB6A040E2D
:1000A000DB6A050EDB6A060EDB6A070EDB6ABAEC5A
:1000B00004F02D0EDF5C0CE02B0EDF5C09E0200E5F
:1000C000DF5C06E0230EDF5C03E0300EDF5C1AE14C
:1000D000DF50300A14E0130A0FE0030A0AE00B0AAB
:1000E00005E0060AE4E1030EDB80E1D7030EDB82C4
:1000F000DED7030EDB84DBD7030EDB86D8D7030EF7
:10010000DB88D5D72A0EDF5C1BE1B6EC04F004ECEB
:1001100005F010E0030EDB8008680968130EDBCFE2
:100120000DF0140EDBCF0EF005EC0DF0040E06C042
:10013000DBFF03D0130EEDEC04F0BAEC04F00BD0AF
:10014000090EDB6A5BEC05F003E0CFEC05F0FAD7B3
:10015000090EEDEC04F0030EDBB0DB982E0EDF5C35
:100160001BE1BAEC04F02A0EDF5C0BE1B6EC04F004
:1001700004EC05F003E1130E3FEC05F0BAEC04F0DB
:100180000BD0090EDB6A5BEC05F003E0CFEC05F069
:10019000FAD7090E3FEC05F0680EDF5C07E1BAEC18
:1001A00004F0680EDF5C1DE1030E18D0740EDF5CF6
:1001B00017E07A0EDF5C14E0480EDF5C06E0540EB8
:1001C000DF5C03E05A0EDF5C02E1020E07D06C0E2A
:1001D000DF5C03E06A0EDF5C04E1010E92EC05F0E7
:1001E000C9DBDF506E0A01E17FD31E0A01E192D123
:1001F000200A01E18FD13F0A01E149D11A0A01E148
:1002000046D10D0A01E143D1200A01E140D13A0A69
:1002100001E13DD1200A01E13AD1260A01E135D1BF
:100220000D0A01E132D11A0A01E1D9D0200A4AE0CF
:10023000300A1FE0460A0EE0250A01E083D3D950B8
:10024000F90FE96EFF0EDA20EA6E010EEE5E000E87
:10025000EE5AEE5AA0EC05F0250EE66E95DB03E1B2
:10026000151C01E169D39CEC05F001E26BD3DB2A9C
:1002700069D3080EDB6A040EDB50010806E2040EA7
:10028000DB0464EC05F0DB508BDB080EDB5009E08F
:10029000030EDB50010B05E172DB01E04DD3080ECC
:1002A000DB6A64DBEFCFDFFF14EC06F003E1151C23
:1002B00001E142D39CEC05F001E3DB2A60DB01E1C4
:1002C00041D33AD3070EDB5002080FE1E0EC05F012
:1002D000030EA7EC05F00E0EEECFDBFF0F0EEECFF8
:1002E000DBFF100EEECFDBFF20D0F70EDBCF17F0D9
:1002F000F80EDBCF18F0020E175E000E185AF70E3C
:1003000017C0DBFFF80E18C0DBFF17C0E9FF18C0ED
:10031000EAFF97EC05F0166A0E0E14C0DBFF0F0E15
:1003200015C0DBFF100E16C0DBFF0E0EDBCFE6FFA5
:100330000F0EDBCFE6FF100EDBCFE6FF73EC10F005
:10034000E552E552E552130E07C0DBFF140E08C05C
:10035000DBFF060EDB5005E0130EDBEC05F001E2DF
:100360006ADBFFEC05F002E2130E37DBC2EC05F0AE
:1003700006E0040EDBEC05F002E2050E2EDB030EB8
:10038000DBB005D0FCDA01E0D7D2080EDB6A090E3B
:10039000DB6A0E0EDBCFF6FF0F0EDBCFF7FF100E82
:1003A000DBCFF8FF0800F550DF6EDF5014E005ECFE
:1003B00006F011E214EC06F003E1151C01E1BCD2D9
:1003C000BBDB01E3DB2A090EDB2AD9500E0FE96EF5
:1003D000000ECBDBE7D7D3DA01E1B4D2ADD2C6DA77
:1003E000110EEECFDBFF120EEDCFDBFF110EDBCFD8
:1003F000E6FF120EDBCFE6FF65EC10F0E552E552AA
:10040000130EF3CFDBFF140EF4CFDBFF060EDB5031
:1004100004E0130ED0DB01E20EDBFFEC05F002E29C
:10042000130EDBDAAFDB05E0040EC5DB02E2050EDE
:10043000D4DA030EDBB005D0A2DA01E07DD2080EDB
:10044000DB6A090EDB6A110EDBCFE9FF120EDBCF90
:10045000EAFFEFCFDFFFDF5014E0D7DB12E2E4DB8F
:1004600003E1151C01E168D267DB01E3DB2A090E19
:10047000DB2A110EDB2ADBCFE9FF120EE8E3DB2AD1
:10048000E6D77DDA01E15ED257D2030EDB8E070E8E
:10049000DB0410E195DB040E5ADB0A0EEECFDBFF26
:1004A0000B0EEECFDBFF0C0EEECFDBFF0D0EEECF13
:1004B000DBFF6CD0070EDB5003082CE1030EDBAE34
:1004C0000DD0B2DA020E76DAEFCF14F0156A166AA2
:1004D000176A14AE39D01568166835D0F70EDBCF21
:1004E00015F0F80EDBCF16F0020E155E000E165A50
:1004F000F70E15C0DBFFF80E16C0DBFF15C0E9FFD5
:1005000016C0EAFFEFCF14F00A0E14C0DBFF0B0E8B
:10051000DB6A38D0070EDB50020809E1030EDBAEC0
:1005200004D059DB16AE10D00ED055DB0DD0030E23
:10053000DBAE12D079DA020E3DDAF9DA166A176A02
:1005400015AE02D016681768E2DA0C0E16C0DBFF93
:100550000D0E17C0DBFF1AD0F70EDBCF16F0F80E2A
:10056000DBCF17F0020E165E000E175AF70E16C0FC
:10057000DBFFF80E17C0DBFF16C0E9FF17C0EAFF6C
:10058000D6DAC5DA0C0EDB6A0D0EDB6A060EDB501E
:1005900005E1010EF36E050EF3CFDBFF150EDB6AEE
:1005A000160EDB6AD950370F146E000EDA20156E66
:1005B000390E14C0DBFF3A0E15C0DBFF380EDB6AC4
:1005C000080EDB6A0A0EAEDADF50780A12E0200A63
:1005D00010E0280A0CE0200A0AE03F0A06E00D0AB3
:1005E00002E0200A08E1020E05D0080E03D0080E32
:1005F000DF26100E97DA030EDBBE02D0DB92DB940F
:10060000DB50800B24E08ADAD890030EEB50000A0E
:1006100008E6000EEE5C000EEE58000EEE58000EDE
:10062000EE5815E213DA0B680C680D680E682DECB5
:1006300010F00A0E02C0DBFF0B0E03C0DBFF0C0E36
:1006400004C0DBFF0D0E05C0DBFF2D0E08D0030E2E
:10065000DBA202D02B0E03D0DBA408D0200EF36E59
:10066000170EF3CFDBFF150EDB2A02D0170EDB6A65
:10067000050EDB5003E1B7D901E189D0D40E146E29
:10068000260E156E000E166E070EDBCF17F0186AD9
:10069000196A1A6A17C00BF018C00CF019C00DF0D7
:1006A0001AC00EF0D3D9FCEC11F014500224F36EF2
:1006B00015500320F46E16500420F86EF4CFF7FFA7
:1006C000F3CFF6FF0800090EF5CFDBFF580EDF5C15
:1006D0000FE1610EF36E090E7BD90AE3200E146E52
:1006E000090EDBCFE7FF1450E75E090EE7CFDBFF13
:1006F000070EDBCF14F0156A166A176A0FDA14C0FA
:100700000BF015C00CF016C00DF017C00EF0EECFB8
:1007100006F0EECF07F0EECF08F0EFCF09F0FCECDB
:1007200011F009C0EDFF08C0EDFF07C0EDFF06C0E6
:10073000EFFF390EDBCFE9FFDB063A0EDBCFEAFF36
:1007400001E2DB06090EDBCFEFFF150EDB2A4BD9EA
:1007500095E1030EDBA61DD06F0EDF5C06E1C1D96B
:1007600018E3150EDB285BDA14D0780EDF5C09E0A5
:10077000580EDF5C06E0620EDF5C03E0420EDF5CD9
:1007800008E1020EF36E160EF3CFDBFF02D0150E5A
:10079000DB6A030EDB50100B0EE0040EDBCF14F00F
:1007A000050EDB50D880145406E2060EDB5003E140
:1007B000040EDB5034DA95D90AE2050EDBCFE7FFF1
:1007C000150EDB50E75E050EE7CFDBFF02D0050E0E
:1007D000DB6A040EDBCF14F0160E45D9D880145412
:1007E00014E2160EDBCFE6FF150EDBCFE6FF040E9C
:1007F000DBCFE6FF050EDB50E552E75CE552D88023
:10080000E754E552D880E7545FD9030EDB50010B63
:100810000BE1080EDB5008E0B2D801E08DD0080EE5
:10082000DB50BED8080EDB6A170EDB5007E088D914
:10083000170EF1D903E1151C01E17ED0160EDB5035
:1008400016E07ED9300EE66E9FD802E1151C74E0EA
:1008500077D9DFCFE6FFB0EC0FF0E552E552E55275
:10086000F4CF15F00001F31C02E1151C65E0050E44
:10087000DBCF14F0160EDB50D880145409E2050EBD
:10088000DBCFE7FF160EDB50E75E050EE7CFDBFFA1
:10089000300EE66E050ECBD94FE1390EDB2ADBCFE9
:1008A000E9FF3A0E01E3DB2ADBCFEAFF090EEFCFC7
:1008B000DBFFDB500EE044D9090EADD902E1151C77
:1008C0003BE0390EDB2ADBCFE9FF3A0EEDE3DB2A12
:1008D000EBD755D831E1160EDBCFE6FF080EC3D8B3
:1008E000E552E7245DD82ED0070EDB50030A1CE04A
:1008F000010A14E0030A07E07BD9DBCFEEFF020E0A
:10090000DBCFEDFF1FD0F5D8196A17AE02D01868FB
:1009100019682CD8BCD819C0EEFF14D0EAD817BE7D
:10092000186824D8B4D80ED063D9DBCFEFFF0AD033
:100930007BD905E1151C03E1F368F46810D0FCD8FD
:1009400001E3DB2A79D941EF00F0010EDBCF14F08F
:10095000020EDBCF15F014C0F3FF15C0F4FF3B0E01
:10096000E15C02E2E16AE552E16ECBD029D9020EE8
:10097000A7EF05F061D90800F550DF6E1200200ED8
:10098000E66E080E17EF06F0B0EC0FF0E552E552F8
:10099000E552F3CF14F0F4CF15F00001F31C120070
:1009A000146E156AD950010F4DD91450EE2615500A
:1009B000ED221200185E000E195AF70E18C0DBFF68
:1009C000F80E19C0DBFF18C0E9FF19C0EAFF1200DA
:1009D000DBCFF4FFF350F45C1200DB50E76E040E43
:1009E000E7CFDBFF12000A0EDBCF14F00B0EDBCFDC
:1009F00015F00C0EDBCF16F00D0EDBCF17F01450F8
:100A00001510161017101200130EEECFDBFF140E88
:100A1000EDCFDBFF130EDBCF14F0140EDBCF15F0A0
:100A20000001800E15141200F70EDBCF18F0F80E3F
:100A3000DBCF19F01200050EDB50E66ED950130F14
:100A400001D9E552E750EE6EED6A12000A0EDBCFD7
:100A500006F00B0EDBCF07F00C0EDBCF08F00D0E0F
:100A6000DBCF09F01200DBCFE6FF150EDBCFE6FF90
:100A7000050EDB50E552E724E552E7241200DB5077
:100A8000CED8010EF36E060EF3CFDBFF1200EE5050
:100A9000EFCFEAFFE96E16C0EEFF17C0EEFF18C0F9
:100AA000EEFF1200D9CFE6FFDACFE6FFE1CFD9FFA4
:100AB000E2CFDAFF1200DFCFE6FFE66A1CEC13F0AC
:100AC000E552E552F3501200E76E080EE7CFDBFF68
:100AD0001200EECF14F0EECF15F0EFCF16F0176A3C
:100AE0001200050EDBCF14F0150EDB50D880145425
:100AF0001200010EDBCF16F0020EDBCF17F0186AE2
:100B00001200E552E5CFDAFFE7CFD9FF12000A0E57
:100B100014C0DBFF0B0E15C0DBFF1200D9500A0F0B
:100B200022EF06F0F36E070EF3CFDBFF1200EECFDD
:100B300014F0EFCF15F01200010EDB2A020E1200A6
:100B4000FC0EDBCFE6FFFD0EDBCFE6FF1200145EEE
:100B5000000E155AF70E14C0DBFFF80E15C0DBFFB0
:100B600014C0E9FF15C0EAFF1200DA20EA6EEF2A8E
:100B7000EECFF6FF000EEF22EECFF7FFEF22EECF23
:100B8000F8FF1200040EDBCFE6FF130EDB50E55238
:100B9000E75C9ADFDB5004DF060EDB501200090E23
:100BA000DB500A0DF350DF24D00FE76E090EE7CFBC
:100BB000DBFFBAEF04F0DB50F36E050EE8EF04F054
:100BC000F70EDBCF14F0F80EDBCF15F01200DFCFFD
:100BD000E6FFC4EF04F028DF030EECDE69EF05F05A
:100BE00016EC00F0E552E552E552E552000912001C
:100BF000BDDEEE50EFCFEAFFE96E010E1200130EDC
:100C0000DB50F36E040EE8EF04F0040EDB50F36EDD
:100C1000090EE8EF04F0DBCFE6FFC4EF04F0E76E67
:100C2000050EE7CFDBFF12008BDFE7EF05F0DBCF30
:100C3000E6FF86DFF0EF05F0D950F90FE96EFF0E01
:0E0C4000B5EF05F0E96E000EDA20EA6E120044
:020C4E000000A4
:100C50000000000000000000000000000000000094
:100C60000000000000000000000000000000000084
:100C700000001200050EE66E2EEC13F0E552120095
:100C80000F0EE66E2EEC13F0E5521200280EE66E03
:100C900095EC0EF0E55264EC12F0000901E0FBD790
:100CA000060EE66E24EC11F0E55264EC12F0000939
:100CB00001E0FBD70E0EE66E24EC11F0E55264EC79
:100CC00012F0000901E0FBD71200E9CFE4FFEACF00
:100CD000E4FFF6CFE4FFF7CFE4FFF8CFE4FFF5CF72
:100CE000E4FFF3CFE4FFF4CFE4FFFACFE4FFFBCF60
:100CF000E4FF00EE00F0140EE80403E3EECFE4FF9F
:100D0000FBD700EE14F0090EE80403E3EECFE4FF96
:100D1000FBD7E652F29EF2A41ED0F29AF2948170B2
:100D20000001BC6BBD6B010E0001C06FC16B060EF4
:100D3000086E096AC5C00DF0C6C00EF005EC0DF0D6
:100D400006C0C7F007C0C8F00001C56BC66BB8D9B4
:100D500093D888D8F28A9EA008D09D909E900001DA
:100D6000C92B000E0001CA239D80F0A00CD0F09684
:100D7000F0908176010E0001BC6FBD6B0001C52BA8
:100D8000000EC623F086F0A207D0F098F092010E74
:100D90000001C26FC36BF0889EA40FD09D949E94F7
:100DA0008178010E0001BE6FBF6B0001D92B000ED0
:100DB0000001DA236FD864D89D84F28EE55200EEEC
:100DC0001CF0090EE80403E3E5CFEDFFFBD700EECE
:100DD00013F0140EE80403E3E5CFEDFFFBD7E5CFF6
:100DE000FBFFE5CFFAFFE5CFF4FFE5CFF3FFE5CF5B
:100DF000F5FFE5CFF8FFE5CFF7FFE5CFF6FFE5CF4D
:100E0000EAFFE5CFE9FF1100E652F29EF28EE552CD
:100E10001100D08EF28EF28AF19AF184F09CF08665
:100E20009D809D849F80F188F08EF08812009390C1
:100E3000819093968196939881981200970EE66E12
:100E4000BBEC12F0E552D59E850EE66E43EC12F037
:100E5000E552CD9012009484850EE66ED7EC12F028
:100E6000E5521200690EE66E670EE66E9FEC12F018
:100E7000E552E552D58E1200D59E1200CD801200AB
:100E8000CD90000EE66EE66A83EC12F0E552E55274
:100E9000CD8012000C6A0D6A800E0E6E3F0E0F6E32
:100EA000CDC007F0CEC008F0CFC009F0D0C00AF026
:100EB000AFEC0BF007C0CDF008C0CEF009C0CFF00A
:100EC0000AC0D0F00001010ED91901E1DA5130E178
:100ED00020EC12F0F3CFCBF0F4CFCCF0C9C017F078
:100EE000CAC018F0196A18BE19680C680D680E6A35
:100EF00017C007F018C008F019C009F032EC0DF067
:100F000004C017F005C018F006C019F0CBC01AF0E5
:100F1000CCC01BF01C6A17501A24146E18501B20EA
:100F2000156E19501C20166E14C0E3F015C0E4F0C5
:100F30000001020ED91901E1DA5130E120EC12F082
:100F4000F3CFCBF0F4CFCCF0C9C017F0CAC018F083
:100F5000196A18BE19680C680D680E6A17C007F088
:100F600018C008F019C009F032EC0DF004C017F0F9
:100F700005C018F006C019F0CBC01AF0CCC01BF0A9
:100F80001C6A17501A24146E18501B20156E195025
:100F90001C20166E14C0E1F015C0E2F00001020E34
:100FA000D880D955000EDA5534E220EC12F0F3CF98
:100FB000CBF0F4CFCCF0E1C0E3F0E2C0E4F0C9C084
:100FC00017F0CAC018F0196A18BE19680C680D68C5
:100FD0000E6A17C007F018C008F019C009F032EC0B
:100FE0000DF004C017F005C018F006C019F0CBC012
:100FF0001AF0CCC01BF01C6A17501A24146E18503B
:101000001B20156E19501C20166E14C0E1F015C07F
:10101000E2F00001020ED95D000EDA5901E301D8B9
:1010200012000001E3510001E15D0001E56F0001E4
:10103000E4510001E2590001E66FE80E146E030E60
:10104000156EE5C008F0E6C009F014C00DF015C03B
:101050000EF006EC13F099EC0BF007C0E7F008C0B7
:10106000E8F009C0E9F00AC0EAF00C6A0D6A480E1F
:101070000E6E420E0F6EE7C007F0E8C008F0E9C040
:1010800009F0EAC00AF0B1EC0DF0010A18E10C6AAF
:101090000D6A800E0E6E3F0E0F6ED1C007F0D2C0EB
:1010A00008F0D3C009F0D4C00AF0AFEC0BF007C0D1
:1010B000D1F008C0D2F009C0D3F00AC0D4F01200B9
:1010C0000001BE6BBF6B0C6A0D6A0E6A0F6ACDC061
:1010D00007F0CEC008F0CFC009F0D0C00AF0AAECEB
:1010E0000DF0010A04E10001DF6BE06B40D0CDC0E0
:1010F0000CF0CEC00DF0CFC00EF0D0C00FF0D1C0BC
:1011000007F0D2C008F0D3C009F0D4C00AF045EC13
:101110000CF007C0D5F008C0D6F009C0D7F00AC05F
:10112000D8F00C6A0D6AC80E0E6E420E0F6ED5C056
:1011300007F0D6C008F0D7C009F0D8C00AF098EC84
:101140000CF007C0DBF008C0DCF009C0DDF00AC01D
:10115000DEF0DBC007F0DCC008F0DDC009F0DEC067
:101160000AF07BEC0DF008C0DFF009C0E0F001D818
:1011700012000001D96BDA6B0001CD6BCE6BCF6B27
:10118000D06B0001D16BD26BD36BD46B0001C96BF8
:10119000CA6B1200E66A98EC10F0E55264EC12F0AB
:1011A000000901E0FBD7C7C0E6FFC8C0E6FF460E56
:1011B000E66E230EE66E000EE66E940EE66E000EF0
:1011C000E66E0BEC0FF0146E070EE15C02E2E16AD2
:1011D000E552E16E1450940EE66E000EE66E52EC8F
:1011E00011F0E552E55264EC12F0000901E0FBD782
:1011F0001200400EE66E98EC10F0E55264EC12F02E
:10120000000901E0FBD7DFC0E6FFE0C0E6FF3E0ECD
:10121000E66E230EE66E000EE66EA80EE66E000E7B
:10122000E66E0BEC0FF0146E070EE15C02E2E16A71
:10123000E552E16E1450A80EE66E000EE66E52EC1A
:1012400011F0E552E55264EC12F0000901E0FBD721
:1012500012008250800B16E18250400B13E1825045
:10126000200B10E18250100B0DE10001310EC46F14
:10127000C4C014F0156A14BE156814C0F3FF15C07D
:10128000F4FF77D18250800B16E18250400B13E0BF
:101290008250200B10E18250100B0DE10001320E44
:1012A000C46FC4C014F0156A14BE156814C0F3FFEF
:1012B00015C0F4FF5ED18250800B16E08250400BC7
:1012C00013E18250200B10E18250100B0DE1000160
:1012D000330EC46FC4C014F0156A14BE156814C070
:1012E000F3FF15C0F4FF45D18250800B16E1825008
:1012F000400B13E18250200B10E18250100B0DE0E7
:101300000001340EC46FC4C014F0156A14BE156811
:1013100014C0F3FF15C0F4FF2CD18250800B16E1EE
:101320008250400B13E08250200B10E18250100BD2
:101330000DE00001350EC46FC4C014F0156A14BE70
:10134000156814C0F3FF15C0F4FF13D18250800B51
:1013500016E08250400B13E18250200B10E18250C6
:10136000100B0DE00001360EC46FC4C014F0156AF6
:1013700014BE156814C0F3FF15C0F4FFFAD08250F4
:10138000800B16E18250400B13E18250200B10E0DD
:101390008250100B0DE10001370EC46FC4C014F071
:1013A000156A14BE156814C0F3FF15C0F4FFE1D030
:1013B0008250800B16E18250400B13E08250200BCC
:1013C00010E08250100B0DE10001380EC46FC4C054
:1013D00014F0156A14BE156814C0F3FF15C0F4FFAD
:1013E000C8D08250800B16E08250400B13E182502F
:1013F000200B10E08250100B0DE10001390EC46F7C
:10140000C4C014F0156A14BE156814C0F3FF15C0EB
:10141000F4FFAFD08250800B16E18250400B13E1F5
:101420008250200B10E08250100B0DE00001300EB6
:10143000C46FC4C014F0156A14BE156814C0F3FF5D
:1014400015C0F4FF96D08250800B16E08250400BFE
:1014500013E08250200B10E18250100B0DE10001CF
:10146000410EC46FC4C014F0156A14BE156814C0D0
:10147000F3FF15C0F4FF7DD08250800B16E0825040
:10148000400B13E08250200B10E18250100B0DE056
:101490000001420EC46FC4C014F0156A14BE156872
:1014A00014C0F3FF15C0F4FF64D08250800B16E027
:1014B0008250400B13E08250200B10E08250100B42
:1014C0000DE10001430EC46FC4C014F0156A14BED0
:1014D000156814C0F3FF15C0F4FF4BD08250800B89
:1014E00016E08250400B13E08250200B10E0825037
:1014F000100B0DE00001440EC46FC4C014F0156A57
:1015000014BE156814C0F3FF15C0F4FF32D082502A
:10151000800B16E08250400B13E18250200B10E04C
:101520008250100B0DE00001450EC46FC4C014F0D2
:10153000156A14BE156814C0F3FF15C0F4FF19D066
:101540008250800B16E18250400B13E08250200B3A
:1015500010E08250100B0DE00001460EC46FC4C0B5
:1015600014F0156A14BE156814C0F3FF15C0F4FF1B
:1015700000D01200E66A98EC10F0E55264EC12F02C
:10158000000901E0FBD72E0EE66E230EE66E000E7C
:10159000E66EF2EC0FF0E552E552E55264EC12F023
:1015A000000901E0FBD7400EE66E98EC10F0E55222
:1015B00064EC12F0000901E0FBD7200EE66E230E6A
:1015C000E66E000EE66EF2EC0FF0E552E552E552E3
:1015D00064EC12F0000901E0FBD7100EE66E98EC07
:1015E00010F0E55264EC12F0000901E0FBD7160E92
:1015F000E66E230EE66E000EE66EF2EC0FF0E5529C
:10160000E552E55264EC12F0000901E0FBD712004C
:10161000D9CFE6FFDACFE6FFE1CFD9FFE2CFDAFF9D
:10162000FD0EDB50300A44E0020A25E0030A01E027
:1016300043D0010EE66E24EC11F0E55264EC12F09A
:10164000000901E0FBD7090EE66E230EE66E000EE0
:10165000E66EF2EC0FF0E552E552E55264EC12F062
:10166000000901E0FBD70001C56BC66B82DD06DC1B
:1016700032EC07F022D0010EE66E24EC11F0E552B8
:1016800064EC12F0000901E0FBD7FE0EE66E220EBC
:10169000E66E000EE66EF2EC0FF0E552E552E55212
:1016A0003CEC07F064EC12F0000901E0FBD705D038
:1016B00061DF3CEC07F001D000D0E552E5CFDAFF66
:1016C000E7CFD9FF120046EC06F017EC07F009EC63
:1016D00007F02BEC07F01EEC07F094684BDF0001DD
:1016E000010EC21901E1C35108E1B3DDC4C0E6FF38
:1016F0008FDFE5520001C26BC36B0001010EC01900
:1017000001E1C15113E10001BC51BD110FE1010E16
:10171000E66E24EC11F0E55264EC12F0000901E0F1
:10172000FBD738DD66DD0001C06BC16BD8D7030085
:021730001200A5
:0E173200019E08D0019E09AE05D0086C091E6C
:10174000E86A0922018E09C003F008C002F0136A9A
:10175000126A8E0E046E056A2BEF0EF00F7E016A80
:1017600067EC0EF07FEC0EF001B60FEF0EF001A269
:101770000AD001AA03D001BE0FEF0EF001A41BEFA7
:101780000EF018EF0EF001AA05D001AC1BEF0EF021
:1017900018EF0EF001A00AD001A808D001BE04D0B5
:1017A00001A402D024EF0EF028EF0EF0126A056AB1
:1017B0000F500A5C116E10E307C013F008C002F06E
:1017C00009C003F00AC010F00CC007F00DC008F00B
:1017D0000EC009F0013A09D00CC013F00DC002F0A0
:1017E0000EC003F00FC010F0116C019E01BC018E01
:1017F00010C004F001B057EF0EF01A0E116057EF51
:101800000EF0046A0A6A01A408D0076C081E091EBB
:101810000A1EE86A082209220A2201AC08D0136CC9
:10182000021E031E041EE86A022203220422066A24
:10183000115207E00A340932083207320632112EFB
:10184000F9D70750132608500222095003220A50E4
:10185000042206C012F0019E04AE0BD0126C131EBF
:10186000021E031E041EE86A13220222032204221F
:10187000018E04A006D0D880033202321332123215
:10188000102A10C004F02BEF0EF0016A67EC0EF086
:101890007FEC0EF001B60FEF0EF001A205D001BAF9
:1018A0000FEF0EF016EF0EF001BA22EF0EF001A0CE
:1018B00005D001B80FEF0EF022EF0EF001B816EFD1
:1018C0000EF0056A7F0E0A24046EE86A05220F50A6
:1018D000045EE86A055A1A0E106E0A6A126A136AE2
:1018E000026A036A0C50075E0D50085A0E50095ADE
:1018F000000E0A5A09E70C5007260D5008220E5018
:101900000922000E0A2201D0128AD8900736083622
:1019100009360A36D8901236133602360336102EA0
:10192000E1D7095008100710D8A4128A2BEF0EF047
:10193000016A67EC0EF07FEC0EF001B60FEF0EF0CF
:1019400001A205D001B80FEF0EF016EF0EF001AABC
:1019500005D001B00FEF0EF016EF0EF001B002D07F
:1019600001A802D022EF0EF0056A0F500A24046E7F
:10197000E86A05227E0E045EE86A055A126A136A56
:10198000026A036A0E500902F4CF03F0F3CF02F0AB
:101990000D500902F3501326F4500222000E0322C8
:1019A0000E500802F3501326F4500222000E0322B8
:1019B0000C500902F3501226F4501322000E02229A
:1019C00003220D500802F3501226F4501322000E89
:1019D000022203220E500702F3501226F450132263
:1019E000000E022203220C500802F4501226000EB0
:1019F0001322022203220D500702F4501226000E79
:101A00001322022203222BEF0EF009C013F008C0AC
:101A100012F008500D02F4CF07F0F3CF06F0095092
:101A20000E02F4CF09F0F3CF08F00D02F3500726B1
:101A3000F4500822E86A092212500E02F3500726D9
:101A4000F4500822E86A09220EAE2BEF0DF0125076
:101A5000085E1350095A13AE000C0D50085E0E506C
:101A6000095A000C09C013F008C012F007C011F0A9
:101A700007500C02F4CF05F0F3CF04F008500D022C
:101A8000F4CF07F0F3CF06F00C02F3500526F45024
:101A90000622E86A072211500D02F3500526F45081
:101AA0000622E86A072209500C02F3500626F45079
:101AB000072209500D02086AE86A0822F350072637
:101AC000F450082211500E02F3500626F45007225B
:101AD000096AE86A0822092212500E02F35007260A
:101AE000F4500822E86A092213500E02F350082627
:101AF000F4500922000C016A67EC0EF001B685EF84
:101B00000DF001A20ED001B405D07F0E096EFF0EBC
:101B1000086E1FD0800E096E086A1BD0096A086A19
:101B200018D001B0FBD78F0E0A60EDD77E0E0A6485
:101B3000F5D78E0E0A5C05E0D890093208320A2AE1
:101B4000F8D701A406D0086C091EE86A092209AE7C
:101B5000E5D71200BAEC0DF001B6000C01B0010C93
:101B6000000CBAEC0DF001B6000C01B0000C01B491
:101B7000000C010C016A67EC0EF07FEC0EF001B670
:101B8000120001AE08D001A004D001A802D001804B
:101B90001200019012000F500A5C0BE10E50095C1C
:101BA00008E10D50085C05E10C50075C02E1018082
:101BB0001200D8A002D0018E10D00A500FC00AF037
:101BC0000F6E09500EC009F00E6E08500DC008F0DF
:101BD0000D6E07500CC007F00C6E0F500A5C10E041
:101BE000FF0F09E0019001B403D001AE018412009F
:101BF00001AE019412000F2AD8900E320D320C3231
:101C00000C50075E0D50085A0E50095A09BEEAD70B
:101C1000D8900736083609360A2EF8D7C8D77F0E6F
:101C20000A6EFF0E096E086E076E12007F0E01BE6F
:101C3000FF0E0A6E02D07F0E0A6E800E096E086AD1
:101C4000076AF3D701AE04D0800E0A6E096AF7D78F
:101C50000A6A096AF4D70350021013101210F8E050
:101C600005BEF0D703BE0CD004500510EBE0D890B1
:101C700012361336023603360406D8A00506F2D70C
:101C80000550D4E10428D2E012AE11D07F0E121418
:101C900002E113A00CD0132AE86A0222032207E310
:101CA000D880033202321332042A0428BFE00450E1
:101CB000C9E013C007F002C008F00334096E043015
:101CC0000A6E09320A9E01BE0A8E15EF0EF0093621
:101CD0000A3602E30184017E06E101800A6A096A8C
:101CE000086A076A12000A2803E0D8800932120045
:101CF000D890093202E101821200018612000E36EC
:101D00000F3602E3018C017E06E101880F6A0E6A3C
:101D10000D6A0C6A12000F2803E0D8800E32120000
:0A1D2000D8900E32EAE1018A1200A9
:061D2A00D9CFE6FFDACF7D
:101D3000E6FFE1CFD9FFE2CFDAFF0F0E83160F0ED9
:101D400095169594959295908C948C928C9040ECED
:101D500006F0300EE66E24EC11F0E552050EE66E4C
:101D6000EFEC12F0E552300EE66E24EC11F0E55285
:101D7000010EE66EEFEC12F0E552320EE66E24EC48
:101D800011F0E55264EC12F0000901E0FBD764ECBD
:101D900012F0000901E0FBD7FD0EDBCFE6FF24ECDB
:101DA00011F0E55264EC12F0000901E0FBD7080ED7
:101DB000E66E24EC11F0E55264EC12F0000901E04B
:101DC000FBD70F0EE66E24EC11F0E55264EC12F036
:101DD000000901E0FBD7010EE66E24EC11F0E5529C
:101DE00064EC12F0000901E0FBD7040EE66E24EC6F
:101DF00011F0E55264EC12F0000901E0FBD7800E0F
:101E0000E66E98EC10F0E55200D0E552E5CFDAFF2F
:061E1000E7CFD9FF12002C
:0A1E1600D9CFE6FFDACFE6FFE1CFF7
:101E2000D9FFE2CFDAFFE652E652E652E652D95047
:101E3000F90F146EFF0EDA20156E020E14C0DBFFD0
:101E4000030E15C0DBFF020EDBCFE6FF030EDBCF78
:101E5000E6FFF90EDBCFE6FFFA0EDBCFE6FFFB0E67
:101E6000DBCFE6FFD950FC0FE66EFF0EDA20E66E00
:101E70002CEC00F0146E070EE15C02E2E16AE55220
:101E8000E16E1450F3CFDEFFF4CFDDFFFC0EDBCFAD
:101E9000E9FFFD0EDBCFEAFFEF6ADECF14F0DDCF06
:101EA00015F014C0F3FF15C0F4FF040EE15C02E26C
:101EB000E16AE552E16EE552E5CFDAFFE7CFD9FFFF
:021EC00012000E
:0E1EC2001E0EF66E000EF76E000EF86E00019A
:101ED0000900F550F06F0900F550F16F03E1F0676C
:101EE00001D03DD00900F550EB6F0900F550EC6FC3
:101EF0000900F550ED6F09000900F550E96E090081
:101F0000F550EA6E090009000900F550EE6F09006E
:101F1000F550EF6F09000900F6CFF2F0F7CFF3F0BC
:101F2000F8CFF4F0EBC0F6FFECC0F7FFEDC0F8FF20
:101F30000001EE5302E1EF5307E00900F550EE6EA9
:101F4000EE07F8E2EF07F9D7F2C0F6FFF3C0F7FFAC
:101F5000F4C0F8FF0001F007000EF15BBFD71200DC
:101F6000D9CFE6FFDACFE6FFE1CFD9FFE2CFDAFF44
:101F7000FB0EDBCF14F0FC0EDBCF15F00001800E62
:101F800015141AE1FB0EDBCFE9FFFC0EDBCFEAFFF5
:101F9000EECFF3FFEDCFF4FFEE2A000EEF22F3CFEA
:101FA000E9FFF4CFEAFFFD0EDBCFEFFFEF50156A3C
:101FB000F36E15C0F4FF10D0FB0EDB50FE0806E1F7
:101FC000FD0EDBCFE6FF5CEC13F005D0FD0EDBCFA2
:101FD000E6FF03EC00F0E552E552E5CFDAFFE7CF8C
:041FE000D9FF120013
:0C1FE400D9CFE6FFDACFE6FFE1CFD9FF4E
:101FF000E2CFDAFFFB0EDBCFF6FFFC0EDBCFF7FF05
:10200000FD0EDBCFF8FF0800F55020E064EC12F085
:10201000000901E0FBD7FB0EDBCFF6FFFC0EDBCFA8
:10202000F7FFFD0EDBCFF8FF0800F550E66EF6EC8B
:1020300010F0E552D950FB0FE96EFF0EDA20EA6E80
:10204000EE2A000EEE22000EEE22D4D700D0E5528A
:0A205000E5CFDAFFE7CFD9FF120059
:06205A0006500B02F3CF5B
:1020600002F0F4CF03F00C02F3500326000EF4202C
:10207000046E06500D02F3500426000EF420056E87
:1020800006500E02F350052607500B02F3500326AC
:10209000F4500422000E052207500C02F3500426CF
:1020A000F450052207500D02F350052608500B028C
:1020B000F3500426F450052208500C02F350052674
:0A20C00009500B02F3500526120030
:0620CA00FE0EE3CFE9FF6A
:1020D000FF0EE3CFEAFFF36AF46AEE5203E0F34A3D
:1020E000F42AFBD71200FF0EE3CFF8FFE552FF0EF4
:1020F000E3CFF7FFE552FF0EE3CFF6FFE552E66AC6
:10210000E66AE66A0900F55209E0FD0EE32A05E1F8
:10211000FE0EE32A02E1FF0EE32AF4D7FD0EE3CF21
:1021200007F0FE0EE3CF08F0FF0EE3CF09F0120038
:10213000D9CFE6FFDACFE6FFE1CFD9FFE2CFDAFF72
:102140000F0E95160F0E8316FD0EDB508009F00B57
:1021500083128C948C9227EC06F08C8027EC06F08E
:102160008C900F0E8316FD0EDB38F00BF00B8312F4
:1021700027EC06F08C8027EC06F08C90F00E951280
:0E21800000D0E552E5CFDAFFE7CFD9FF12001D
:02218E00D9CFA7
:10219000E6FFDACFE6FFE1CFD9FFE2CFDAFF0F0E9D
:1021A00095160F0E8316FD0EDB504009F00B8312BF
:1021B0008C948C9227EC06F08C8027EC06F08C90A7
:1021C0000F0E8316FD0EDB38F00BF00B831227EC9D
:1021D00006F08C8027EC06F08C90F00E951200D063
:0C21E000E552E5CFDAFFE7CFD9FF12008F
:0421EC00D9CFE6FF62
:1021F000DACFE6FFE1CFD9FFE2CFDAFF0F0E951677
:102200000F0E8316FD0EDB50F00B83128C828C9424
:1022100027EC06F08C8027EC06F08C900F0E8316CE
:10222000FD0EDB38F00BF00B831227EC06F08C80F0
:1022300027EC06F08C90F00E951200D0E552E5CF19
:08224000DAFFE7CFD9FF12001D
:08224800D9CFE6FFDACFE6FF73
:10225000E1CFD9FFE2CFDAFF0F0E95160F0E8316EE
:10226000FD0EDB50F00B83128C948C9227EC06F061
:102270008C8027EC06F08C900F0E8316FD0EDB3859
:10228000F00BF00B831227EC06F08C8027EC06F0A5
:102290008C90F00E951200D0E552E5CFDAFFE7CF33
:0422A000D9FF120050
:0C22A400D9CFE6FFDACFE6FFE1CFD9FF8B
:1022B000E2CFDAFFFC0EDBCFE9FFFD0EDBCFEAFF5A
:1022C000EF5016E064EC12F0000901E0FBD7FC0EC1
:1022D000DBCFE9FFFD0EDBCFEAFFEF50E66EF6EC59
:1022E00010F0E552FC0EDB2AFD0E01E3DB2AE2D7FB
:0E22F00000D0E552E5CFDAFFE7CFD9FF1200AC
:0222FE00537417
:102300006F72696E672E2E2E004D6561737572694E
:102310006E672E2E2E00322E53746F726167650029
:10232000312E4D6561737572656D656E7400506C0C
:10233000656173652063686F6F73653A200048526A
:10234000563A256425004865617274626561743A85
:0323500025640001
:0C235400D9CFE6FFDACFE6FFE1CFD9FFDA
:10236000E2CFDAFFE6528C848C8227EC06F08C8078
:1023700027EC06F0F00E8314DF6E8C9027EC06F04D
:102380008C8027EC06F083380F0B0F0BDF128C903C
:102390008C928C94DF5000D0E552E552E5CFDAFF05
:0623A000E7CFD9FF120097
:0A23A600D9CFE6FFDACFE6FFE1CF62
:1023B000D9FFE2CFDAFFE6528C848C9227EC06F04C
:1023C0008C8027EC06F0F00E8314DF6E8C9027ECE7
:1023D00006F08C8027EC06F083380F0B0F0BDF1212
:1023E0008C908C947F0EDF1400D0E552E552E5CF3F
:0823F000DAFFE7CFD9FF12006C
:0823F800056A046A036A026A27
:10240000200EE76ED89006360736083609360236B3
:102410000336043605360B50025C0C5003580D5041
:1024200004580E50055809E30B50025E0C50035A35
:102430000D50045A0E50055A062AE72EE4D7120012
:10244000D9CFE6FFDACFE6FFE1CFD9FFE2CFDAFF5F
:10245000E652E6520001F5919EB4F581BE50DF6E62
:10246000010EBFCFDBFFDECF14F0DDCF15F014C0BF
:10247000F3FF15C0F4FFE552E552E552E5CFDAFF70
:06248000E7CFD9FF1200B6
:0A248600D9CFE6FFDACFE6FFE1CF81
:10249000D9FFE2CFDAFFFD0EDB507E0BCD6EFD0ED5
:1024A000DBAC02D0CD8E01D0CD9ECF6ACE6A9E909D
:1024B000DBAE02D09D8001D09D90CD80E552E5CF6E
:0824C000DAFFE7CFD9FF12009B
:0824C8008C848C9227EC06F0D5
:1024D0008C8027EC06F083AE0BD08C9027EC06F0B6
:1024E0008C8027EC06F08C908C94010E0BD00AD0D7
:1024F0008C9027EC06F08C8027EC06F08C908C9466
:06250000000E00D01200E5
:0A250600D9CFE6FFDACFE6FFE1CF00
:10251000D9FFE2CFDAFFE652E652FC0EDBCFDEFF58
:10252000DBCFDDFF010EDB50CF6EDF50CE6EE5520C
:0E253000E552E552E5CFDAFFE7CFD9FF120002
:02253E00D9CFF3
:10254000E6FFDACFE6FFE1CFD9FFE2CFDAFFE652CE
:10255000E652FC0EDBCFDEFFDBCFDDFF010EDB50F2
:10256000D76EDF50D66EE552E552E552E5CFDAFF81
:06257000E7CFD9FF1200C5
:0A257600D9CFE6FFDACFE6FFE1CF90
:10258000D9FFE2CFDAFFFD0EDB507F0BD56ED76AA5
:10259000D66AF294FD0EDBAE02D0F28A01D0F29A36
:0E25A000D58EE552E5CFDAFFE7CFD9FF120066
:0225AE00D9CF83
:1025B000E6FFDACFE6FFE1CFD9FFE2CFDAFFFD0E8B
:1025C000DB500F0BBD6EFD0EDBAE02D09E949D84E2
:0E25D0009484E552E5CFDAFFE7CFD9FF120081
:0225DE00FF0EEE
:1025E000E3501E6EEF0E01D0F30EE76EE72EF6EF0E
:1025F00012F00C0E1D6EE76AE72EFCEF12F01D2E96
:0C260000FBEF12F01E2EF4EF12F012009F
:04260C00056A046AED
:10261000100EE76ED89008360936043605360D5090
:10262000045C0E50055805E30D50045E0E50055A2B
:08263000082AE72EF0D7120082
:08263800F36AF46AFF0EE124CD
:10264000E96EFF0EE220EA6EED6607D02F0EEF6412
:0C26500004D03A0EEF6001D0F32A120013
:04265C00FF0EE3503A
:102660001E6E480E01D04C0EE76EE72EFED7E76ACD
:0C267000E72EFED71E2EF7D70000120048
:04267C00000EF36EEB
:1026800000EE00F0060E01D81200EA6002D0EE6AF9
:0C269000FCD7F350E9601200EE6AFCD7A2
:04269C0015EE00F047
:1026A00025EE00F0F86A019C61EC0FF007EC00F0F9
:0826B00063EC0BF0FBD71200F4
:0826B800FF0EE350ACBA04D0A0
:1026C000AF6AAB8EAC8A949CACA2FED7AD6EF36EB3
:0426D000F46A120096
:0C26D4003031323334353637383961622A
:0526E000636465660063
:0B26E5000000000000000000000000EA
:1026F00000000000000000000000000000000000DA
:1027000000000000000000000000000000000000C9
:0427100000000000C5
:020000040030CA
:0100010021DD
:010003000EEE
:010006008178
:00000001FF
